:0200000097283F
:100006008030831203132806F00080307002031D2F
:100016000E2809302702031C1628A701A80187010C
:0C002600A90A0319AA0A2908860008008C
:100032008030831203132306F00080307002031D08
:10004200242809302202031C2C28A201A3018801C2
:10005200A70A0319A80A270887008030F000803019
:1000620028067002031D37282708093C03183A287E
:04007200032008005F
:1000760083120313A001A101A201A301A701A801F4
:06008600A901AA01080017
:0E008C00831203138601870188018501080095
:10009A008030831203132106F00080307002031DA2
:1000AA00582809302002031C6028A001A1018501FB
:1000BA00A20A0319A30A220888008030F0008030BF
:1000CA0023067002031D6B282208093C03186E28B8
:0400DA0019200800E1
:1000DE0083120313891C762846203B20772886102E
:0200EE00080008
:1000F000803083120313F000803021067002031D4C
:1001000083282008093C031C8828A00A0319A10A97
:10011000200885008030F000803021067002031D29
:0E01200093282008093C031896284D2008005B
:10012E008312031324148316860187018801850127
:10013E000F309F000914891446203B20091CAC285F
:10014E002418AC2878202414B1280918B0282410BB
:10015E00B1282414891CB5286F20B6288610A5282E
:02016E00B728B0
:02400E004A2F37
:00000001FF
